:100000000C94E208189518950C94F7021895189519
:1000100018951895189518950C946A0118951895C7
:100020001895189518951895189518951895189568
:100030001895189518951895189518951895189558
:100040001895189518951895189518950C94E1021F
:10005000189518950D0A2A2A2A2A2A2A2A2A2A2A8B
:100060002A2A2A2A2A2A2A2A2A2A2A2A2A2A2A2AF0
:100070002A2A2A2A2A2A2A2A2A0D0A2A2A2A204F02
:100080007265676F6E20536369656E746966696334
:100090002054484E31323820726563656976657246
:1000A0000D0A2A2A2A2076312E30302041546D65DF
:1000B000676131360D0A2A2A2A2028632932303016
:1000C0003920627920416C6578616E6465722059CF
:1000D0006572657A657965760D0A2A2A2A20652D6A
:1000E0006D61696C3A20776170626F7840626B2E47
:1000F00072750D0A2A2A2A20687474703A2F2F61AB
:100100006C7965722E667269686F73742E6E657491
:100110000D0A2A2A2A204943513A203330353230F9
:1001200036323339200D0A2A2A2A2A2A2A2A2A2A4A
:100130002A2A2A2A2A2A2A2A2A2A2A2A2A2A2A2A1F
:100140002A2A2A2A2A2A2A2A2A2A2A200D0A002585
:10015000303258000D0A204368616E6E656C28319C
:100160002E2E3329233A202564000D0A2054656D74
:1001700070657261747572652028783130293A2073
:100180002564000D0A2048756D69646974793A2008
:1001900025303264000D0A20426174746572792042
:1001A0005374617475733A20004F4B0042616421AF
:1001B000000D0A0043002525000D0A20524157205A
:1001C0005246207061636B65743A20000D0A20541A
:1001D000696D657374616D7020287831306D732995
:1001E0003A202564000D0A2043524320636865636A
:1001F0006B3A2000303132333435363738394142AA
:10020000434445460030313233343536373839616E
:10021000626364656600286E756C6C20706F696E31
:0902200074657229003F3F3F00A4
:10022A00000132082C0845030802F607117B070B68
:10023A003C07019A0701030801010801F607029A1F
:10024A0007052907016E07017B07034507027B079C
:10025A00037707FB5D9BFECF0CB910E0089500E021
:10026A0000BD00E109B908E10AB906E800BD089530
:10027A008D9A0FEF13EC29E0015010402040E1F76E
:10028A0000C0000095980E943401F89409E00EBD60
:10029A000FEF10E01BBD0ABD09B7006109BF09B71E
:1002AA00026009BF05B7086005BF05B70B7F05BF28
:1002BA000BB700680BBF00E80ABF789404E510E0AA
:1002CA000E94F90B00E010E00895BA93AA938A936A
:1002DA00FA93EA933A922A921A920A927A936A9330
:1002EA005A934A933A932A931A930A938FB7A4E894
:1002FA00B1E00D911C910F5F1F4F1C930E93119645
:10030A0015970137124059F40D911C910F5F1F4F39
:10031A001C930E9300E014960D930C931597129666
:10032A000D911C910F5F1F4F1C930E9311961397FB
:10033A00043D1043C1F416960D911C910F5F1F4F97
:10034A001C930E93119617970530104039F40E94AA
:10035A00C70400E016960D930C93179700E01296C7
:10036A000D930C9313978FBF099119912991399184
:10037A0049915991699179910990199029903990E7
:10038A00E991F9918991A991B9911895BA93AA938A
:10039A009A938A93C801022F032B89F0D901FC0191
:1003AA000191CF0110E01A930A930FE411E00E9421
:1003BA00F90B229600E20E942F01119781F701EBB7
:1003CA0011E00E94F90B89919991A991B991089527
:1003DA009A928A927A926A925A924A92BA93AA9371
:1003EA009A938A9308E8602E01E0702EE8E8F1E01B
:1003FA0047A526A565A5062E112430E0020E111C7C
:10040A00040E131E992430A9502D510D351719F0D9
:10041A00301509F06DC0939404E0609F412C4F7031
:10042A0084E6849FC001022F02950F70402F0AE0D4
:10043A00049F800D911D2F7030E0820F931F44207E
:10044A0011F4882E06C007A505FF03C09195819572
:10045A00904007A5552407FD5394E0E8F1E0A081F8
:10046A00B181042D442029F00A9599F00A9549F1A1
:10047A003FC0F301A387B4878682068110851017CF
:10048A0008F400871781011708F4078351869286BA
:10049A002FC0F301A28FB38F8787908B07851089AE
:1004AA00238934892017310714F4038B148B21898B
:1004BA0032890217130714F4018B128B508E918E16
:1004CA0017C0F301A1A7B2A7868F978F068D178D44
:1004DA0022A133A12017310714F402A313A320A1E8
:1004EA0031A10217130714F400A311A357A290A66F
:1004FA0009EB11E00E94F90B24E030E00DE2060D51
:10050A00731E172D43DF05EE11E00E94F90B9920A7
:10051A0019F40CEA11E002C009EA11E00E94F90B91
:10052A0010E01A934A9204E511E00E94F90B229610
:10053A00442059F499249A928A9203E811E00E947D
:10054A00F90B229606EB11E009C09A938A930AE600
:10055A0011E00E94F90B229604EB11E00E94F90BBC
:10056A0005E911E00E94F90B552019F00CEA11E097
:10057A0002C009EA11E00E94F90BBA93AA930CECA3
:10058A0011E00E94F90B229601EB11E00E94F90B8F
:10059A0005B70B7F05BF0BB700680BBF0AB700682A
:1005AA000ABF89919991A991B991499059906990F5
:1005BA007990899099900895FA93EA931A930A93F5
:1005CA001FB700E003BFE8E8F1E001AB02AB05B7F3
:1005DA000B7F05BF00E80ABF1FBF09911991E99176
:1005EA00F99118958A93FA93EA933A922A921A926F
:1005FA000A927A936A935A934A933A932A931A934A
:10060A000A938FB705B702FF07C000E0839B9BC11F
:10061A000395043038F4FACF00E0839994C1039526
:10062A000430D8F300911D020F3F19F40EEF009326
:10063A001D020091BA01002309F0D7C001E000931E
:10064A001A0200E000931B020091B901005031F038
:10065A000A95D9F00A9509F486C075C100E002BF6F
:10066A0000E80CBF0DE003BF05B7046005BF00E05A
:10067A0000931C0200931902E8E8F1E001A903952E
:10068A0001AB00E000931D025EC100E003BF02B7A8
:10069A000093180200E002BF00E80CBF0DE003BFA0
:1006AA0005B70B7F05BF20911802E0911D02F0E00B
:1006BA00E554FE4F2183EDE1F2E0008103950083CA
:1006CA00009118020E3168F4093058F0ECE1F2E0BA
:1006DA00008103950083E8E8F1E001A9039501ABE5
:1006EA0032C100911C020A3008F431C1009119028A
:1006FA00002300911802A1F4033508F028C102333F
:10070A0008F425C1ECE1F2E0008103950083E8E8F2
:10071A00F1E001A9039501AB05B70B7F05BF13C132
:10072A000A3790F4093580F000E00093190200932B
:10073A001A0201E000931B02E8E8F1E005A50E7F2A
:10074A0005A701E002ABCBCF073608F000C106349B
:10075A0008F4FDC000E00093190201E00093BA0119
:10076A000093B901F0C000E003BF02B7009318027A
:10077A0000E002BF00E80CBF0DE003BF20911802A1
:10078A00E0911D02F0E0E554FE4F2183EDE1F2E035
:10079A0000810395008300911802063260F401314A
:1007AA0050F0ECE1F2E000810395008305B70460A4
:1007BA0005BF01E0D5CF00911C020A3008F4C7C07A
:1007CA00009118020A3608F0C2C0093408F4BFC002
:1007DA00ECE1F2E000810395008301E00093190245
:1007EA000093B90105B7046099CF959A0091B901B0
:1007FA00002319F00A95D1F171C000E003BF02B7D6
:10080A000093180200E002BF00E80CBF0DE003BF2E
:10081A0020911802E0911D02F0E0E554FE4F218379
:10082A00EDE1F2E0008103950083009118020E3198
:10083A0040F4093008F48BC000911A02002379F4BD
:10084A0006C0063308F083C0013208F480C000E015
:10085A0000931A02EBE1F2E000810395008305B7E9
:10086A000B7F05BF01E00093B90138C000E003BF68
:10087A0002B70093180200E002BF00E80CBF0DE0C7
:10088A0003BF20911802E0911D02F0E0E554FE4FEB
:10089A002183EDE1F2E000810395008300911802C3
:1008AA00063240F4013108F452C000911A020130B4
:1008BA0079F406C00C3308F04AC0073208F447C07E
:1008CA0001E000931A02EBE1F2E000810395008354
:1008DA0000E00093B90105B7046005BF40911B020F
:1008EA004A95242F26952695269500911A020023CB
:1008FA0019F00A9569F017C0477001E00E94F408E0
:10090A000095F0E0E22FE857FE4F15A510230AC024
:10091A00477001E00E94F408F0E0E22FE857FE4F2A
:10092A0015A5102B15A700911B02003260F000E0FC
:10093A0003BF95984DDD00E00093B9010093BA0119
:10094A0001E00093BB010AB700680ABF0AC0959884
:10095A0000E00093BA0103BF0093B90105B70B7F0A
:10096A0005BF8FBF099119912991399149915991DF
:10097A00699179910990199029903990E991F991A1
:10098A0089911895BD01E8E8F1E003851485A0E88E
:10099A00B1E02D913C91201B310BA0E8B1E04D91C3
:1009AA005C914017510725873687213E3E4210F059
:1009BA0002E00287028D138D20918001352F201BC2
:1009CA00310B40175107248F358F213E3E4210F0DC
:1009DA0002E0018F01A512A520918001352F201B6D
:1009EA00310B4017510723A734A7213E3E4210F08E
:1009FA0002E000A7DB01089500008895FECF0E945F
:100A0A00CE0BD8D36A017B015B01662477244FD1D0
:100A1A0056D120F160E070E00E94560BB1F50989C9
:100A2A00002309F444C06C147D044CF40CEF6016E6
:100A3A000FEF700624F000E0088BC618D7080FEFF6
:100A4A00C00ED01E0A89002381F100E0098B2FC055
:100A5A0026D10E94D70AAED30AE092D347EB53E4D9
:100A6A006AEB71E52BD1A0F326D160E271E426D1BD
:100A7A00B0F60E94D70A9ED301E082D3F5CF0FD1F8
:100A8A0097D306EF600E0FEF701E40E057EE6BED46
:100A9A007EE20AD1A0F30BD107D108F660E271E435
:100AAA0087D30FEF600E701EF6CF01E00A8B08891C
:100ABA00002319F000E010E023C07720EAF4DAD02E
:100ACA002601E4D08824992404C0D4D00FEFC00EA4
:100ADA00D01E0FEF800E901E681479041CF40C2DA2
:100AEA000D2999F70FEF1FEF041915096016710602
:100AFA000CF471C001E0DFCF83011195019510401C
:100B0A0048011EC0DED00E94AB09402E2BD30E94A2
:100B1A00A009A801B901D5D00E94410AA801B901CA
:100B2A0000E010E020E231E443D3042D005DA3D0BD
:100B3A00940101E0800E00E0901E232B09F4A6D058
:100B4A00C814D904FCF6B7D060EA70E4B7D008F04C
:100B5A0042C044244394C50101978701FC012081C6
:100B6A002E3251F0240D20832A3329F420E32083E6
:100B7A004424439401C0442401970E171F0770F3BD
:100B8A00442049F128892223B1F0C50103C0FC01A0
:100B9A00208301970817190750F4FC013297218125
:100BAA002E32A9F72081FC0120830197F2CF01E0C0
:100BBA00600E741E0DC021E0A20EB41EC50105C050
:100BCA00FC012291FC012083019708171907C0F341
:100BDA0001E3F70100830989002321F40CC00FEF18
:100BEA00A00EB01EF50102910033C9F30E3219F4BA
:100BFA000FEFA00EB01E08890023C1F1F501019381
:100C0A0077203AF40DE238D07194619400E0700ACA
:100C1A0002C00BE231D0442455240AE0A00EB41CD1
:100C2A0001E0A5D251D0405DF50141935F014CD05E
:100C3A003801012BA9F702E0401600E0500684F3C0
:100C4A00420182011CD02081840119D0E40DF51DD6
:100C5A003B9720830FEF400E501E01E0401600E044
:100C6A0050067CF706EFA00E0FEFB01E8501E3E1F8
:100C7A000C94DF0B00E3F50101935F0108951195D0
:100C8A0001951040F501E00FF11F08950C2D0D2973
:100C9A0019F40A89002311F00EE2EEDF089549EFF4
:100CAA0052E065E170E508950CD00C94600B03D016
:100CBA0060E87FE3089540E050E0089502D00C9484
:100CCA00780B8C019D0108954AE050E083010C9451
:100CDA0019090E94D00BEF97EF976C9709831A8333
:100CEA002B873C874D875E876C837D8300E009876D
:100CFA000A8704C024D220D205E22AD200E0088B57
:100D0A00098B02C019D224D210D2053251F0002325
:100D1A00C9F709851A85EF96EF966C96EEE00C9462
:100D2A00E10BFFD1053231F300E00F8308870E8310
:100D3A000B833E0104E124D204EF11E00A8B1B8BE2
:100D4A0006C00B81002311F404910B83F8D1E9D179
:100D5A000052B9F3035059F00850B1F3025019F098
:100D6A00035049F00CC00E8103950E83EFCF08851E
:100D7A0003950887EBCF0F8103950F83E7CF049183
:100D8A000A3289F4BFD1AD90BD90B9D1BB203AF4F3
:100D9A00B194A19400E0B00A0E8103950E830981F3
:100DAA001A81CED114C0AA24BB240CC0B5D18501A6
:100DBA000E94F908A82EBB24A00EB11E00EDA00EB9
:100DCA000FEFB01EAED1003310F00A3378F30E8164
:100DDA00002311F000E00F83E981FA8105910E32B8
:100DEA0009F5E983FA8304910A3241F48BD18D9093
:100DFA009D9085D109811A81A3D117C0882499248D
:100E0A0090D1003390F00A3380F486D184010E9495
:100E1A00F908882E9924800E911E00ED800E0FEF9E
:100E2A00901EEECF88248A94982C80E07AD10C54B4
:100E3A0021F00C5119F0045011F481E080D175D1E0
:100E4A00EAE2F2E00C94890B882359F049855A8525
:100E5A00652F660F660B47D1408351836283638394
:100E6A004DCF29853A853FD12083318347CF4AD157
:100E7A000D91119644D10C8B2E0105E178D1F6C063
:100E8A0041D16D907D903BD1062D072931F406E1C1
:100E9A0012E0088B198B0DE0E7C0992022F400E1DB
:100EAA00802E07E2902E80E090E001C00196F301C7
:100EBA0001913F01002319F088159905BCF30FEF42
:100ECA00600E701E2301919581959040680E791EDF
:100EDA00CDC00885002331F0082D092919F4992479
:100EEA008824839405E012E00A8B1B8B0881003763
:100EFA0059F408D18D919D9102D1A0E0B0E000E1B2
:100F0A00C02EDD24DB8225C002D111F0F6D003C049
:100F1A00F6D020E030E04ED108810F3611F408E017
:100F2A00EFCF053761F70AE0EBCFF1D011F0E5D04A
:100F3A0002C0E5D017D13ED133234AF40DE20B8328
:100F4A009095A095B09581959F4FAF4FBF4F0AE0FE
:100F5A00C02E3E0109E914D12E0109E908D1082F52
:100F6A00092B0A2B0B2B11F001E001C000E00F87BF
:100F7A00082D092919F40F850023A9F005D1EA895A
:100F8A00FB89E00DF11D0491F7D0FED013D1012B9E
:100F9A00022B032B99F7992032F40F81002319F0C1
:100FAA00FAD001C0E8D08E0107561F4F97D0D4F36C
:100FBA000885002309F45AC00F85002309F456C096
:100FCA000881083711F0083511F4D6D008C00F3659
:100FDA0009F04CC0F3010081003309F447C0CBD0BB
:100FEA0045C081E0088102500883082D092939F497
:100FFA0099248824839408C000E0088380E099201B
:10100A001AF406E0802E992483D077D054DE60E06B
:10101A0070E00E94600B18F44DE24B8330583E0199
:10102A0044E1640E751E6A0C7B1C48854A938A93B8
:10103A004A814A93B301A401E2DC28010F8100230B
:10104A00A9F0A9D082014AD08CF495D0FBCF0981AE
:10105A001A810150104009831A8305E212E0088BB5
:10106A00198B6624772403E0402E55244201861802
:10107A009708A814B9041CF480E090E007C091D046
:10108A00A818B90810E0A01AB10AC5010E810023F8
:10109A0021F401C05AD00197EAF70B81002389F0A5
:1010AA004BD00EC008891989012B46D031F0E88946
:1010BA00F12F0591E88BF98B03C0F30101913F01F0
:1010CA0047D00FEF800E901E6AF70E81002309F4B5
:1010DA0015CE01970AF412CE38D0FBCF061917099C
:1010EA00081519050895AC81BD81ED91FC91019116
:1010FA001191FC93EE93F80108952D913D91A083EF
:10110A00B1830895EC81FD81A081B181089588237E
:10111A00F9DF0D911D9108958591E983FA834AE0DB
:10112A00CBCDE981FA8104910895E981FA8105918B
:10113A00E983FA83088308952D853E8508958F01F2
:10114A000F5F1F4F09831A8308952D853E8500E29C
:10115A00EB85FC85099509851A850F5F1F4F09875D
:10116A001A870895212F220F220B322F0895400E3D
:10117A0000E0501E089500E3F30102933F01089531
:10118A00600E00E0701E08954C2D50E060E070E0A3
:10119A0098DD0C94350905D010E04501801A910AB2
:1011AA0008950B81002311F001E0089500E00895ED
:1011BA000E945E0AC801D90108950FE70DBF01E038
:1011CA000EBFC0E6D1E00E94F40B002311F00E948A
:1011DA00160C0E943D010E9401050C9401054A95D6
:1011EA0012F0000FE1F70895149F102D059F100DBE
:1011FA00049F002D110D089500241124EFE0001F13
:10120A00111F001C111C0416150610F0041A150AE9
:10121A00EA95AAF7001F111FA001009510950895DD
:10122A005195419550400895FF27552312F4F160D6
:10123A00F7DF112312F4F09507D00E940109F0FD9F
:10124A0003D0F1FDEDCF0895119501951040089551
:10125A004A952AF03695279517950795F9CF089557
:10126A00002411241001E0E2EA9592F0001F111FF8
:10127A00221F331F001C111C221C331C04161506C6
:10128A002606370688F3041A150A260A370AECCF07
:10129A00001F111F221F331FA001B10100951095D5
:1012AA0020953095089530952095109501951F4FFA
:1012BA002F4F3F4F0895FF27112477FB660F771FA3
:1012CA00089409F4771F679517F8EE27002437FB6F
:1012DA00220F331F089409F4331F279507F808953E
:1012EA0027FD0EC0EE0F001F111F221F3A95323044
:1012FA00B8F7332319F427FD31E002C027FF30E0A5
:10130A00E03821F400FF08940EF488940F4F1F4F21
:10131A002F4F3F4F323038F4332319F427FD31E091
:10132A0002C027FF30E03F3F29F0220F000C37951B
:10133A0027950895AAC0032E002012F40E94580986
:10134A00E02F012F122F232F3EE9D1CFBEDF432FEB
:10135A004F5748F04F3148F007FC91C03FE72FEF55
:10136A001FEF0FEF089533278CC0322F212F102F34
:10137A000E2F4F5141950E942D0907FE08950C9496
:10138A005809F901EE0FFF1F37FBFF3F31F0EF2B32
:10139A00E12BE02B8894B8940895E02BE12B21F0FF
:1013AA0008949894B89408959894889438940895D1
:1013BA00FB01EE0FFF1F77FBFF3F31F0EF2BE52B11
:1013CA00E42B8894B8940895E42BE52B69F3E8CFCD
:1013DA00EFDF68F021F43723262F8A010895372F8B
:1013EA00FBCFE6DF20F00BF008957327EAF751C030
:1013FA00C8DFE8F3B3F361F3DBDFC8F383F3A1F3E8
:10140A005ADF401751076207730731F4011411F1CB
:10141A000024E89488942BC078F0332E372F732D4C
:10142A00322E262F632D312E152F532D302E042FB9
:10143A00432D302C012C132C371739F0669557950C
:10144A004795F795E0407395F7CFE7FBEE0FE0E09D
:10145A0010246AF0EF0F041F151F261F60F427954A
:10146A0017950795E79508F46894339540CFEF0BE5
:10147A00040B150B260B3BCFE0E87E27B9CF302DA6
:10148A00307822271127002708953FE7302920E8DE
:10149A00F9CF3FEF2FEFF6CF8BDFD8F3D1F3707888
:1014AA003727089585DFA8F3A3F3F9CF30783727D4
:1014BA0093CF67DF70F383F3A9F37ADF50F3B3F3C3
:1014CA00A9F3F9DE0124E8943F57E040370FEF1FF4
:1014DA0012F0D9F603C03A3E90F26894E0E00A921C
:1014EA00AA933A93AA27332422243327049FF0018C
:1014FA00059FF00D712D731F149FF00D711D221C95
:10150A00069F700D211C331C159F700D211C331E64
:10151A00249F700D211C331E169F200C311CAA1FFC
:10152A00259F200C311CA31F269F300CA11D399129
:10153A005EF43395A695379427947795F795E795B2
:10154A0033953130BCF316C0AA2322F0332351F469
:10155A00339510C0339571F4A991099096CFA7FDE0
:10156A0009C03A95EE0FFF1F771F221C331CAA1FD2
:10157A003230A8F7E894FE2B09F068942A2F8101EB
:10158A00E72FA9910990BCCE13DF10F00BF087CF9B
:10159A0080CF0EDFE9F3E0F3032E072670CF032E88
:1015AA00072673CFEEDEA0F37BF399F301DF80F316
:1015BA009BF3A9F380DE012427FD06C0000F111F4B
:1015CA00221F3150E040F8CF67FD06C0440F551F77
:1015DA00661F7150F040F8CFE894371BEF0B315873
:1015EA00EF4F2AF0EE23E9F63F3FD9F203C03A3E25
:1015FA00A8F26894E0E0F0E0112413944017510730
:10160A00620738F0315008F46894000F111F221F46
:10161A00EE1F041B150B260BEF0B000F111F221FC9
:10162A00EE1FAA9379E17A95AAF0041715072607FF
:10163A00EF0730F0041B150B260BEF0B089401C0C3
:10164A008894111C221C331CAA1F000F111F221F71
:10165A00EE1FE9CFF0F9E894E22BE12BE02B09F039
:10166A006894A695379427941794E79508F4689494
:10167A007395B9F3A991332311F0F0FF09C0369499
:10168A0027941794E79508F4689433953130BCF39E
:10169A00012D122D232D34CE8BCE989408951894B3
:1016AA0008956FDED0F3C1F383DEB8F3041715078C
:1016BA002607370708957CDEA0F063DE90F029F054
:1016CA00E32FE7273AF47317089572DE51F04EF0CC
:1016DA0008940895041715072607370719F016F412
:1016EA00B8F78894089564DEE0F34BDED0F3E7DFC1
:1016FA00C0F3089408957591659155914591159097
:10170A0011FA259035900895F9DF041B10E003C003
:10171A00F4DF041B150B20E030E005C0ECDF041BEE
:10172A00150B260B370BB8F010FC17C04591059026
:10173A00E00FF11F0417100540E02407340758F49E
:10174A0036F404910024F101E01BF0090994E00F3A
:10175A00F11F25903590F101099411F4D6F7F1CFD4
:10176A0031960EF0319650E060E070E045914B3FC3
:10177A0048F089F34F3F29F04E3F11F0759165917A
:10178A0055914591041B150B260B370B39F318F3AA
:10179A00E7CFFA92EA92DA92CA92BA92AA929A9205
:1017AA008A927A926A925A924A92BA93AA939A938C
:1017BA008A930895FF84EE84DD84CC84BB84AA8452
:1017CA00998488847F806E805D804C80BB81AA81E9
:1017DA0099818881F0E0EC0FFD1FEF01089501E087
:1017EA00089510E00C942F0122979E012E5F3F4F1F
:1017FA0028833983BE0140E050E026EF3BE00E9497
:10180A006E062296089520E006D0E9F708952591FC
:10181A0002D0E9F708952D9301501040202F212B73
:10182A00089580E698E1FC0105911491FC01329635
:10183A00A591B491FC01349625913491422F432B02
:10184A0019F0F901E4DF01C0DEDF069618E18636F9
:0C185A00910748F308959E0080010000F3
:00000001FF
:00000001FF
